{
  "contractName": "Concatenate",
  "abi": [
    {
      "constant": true,
      "inputs": [
        {
          "name": "str1",
          "type": "string"
        },
        {
          "name": "str2",
          "type": "string"
        }
      ],
      "name": "concatWithoutImport",
      "outputs": [
        {
          "name": "",
          "type": "string"
        }
      ],
      "payable": false,
      "stateMutability": "view",
      "type": "function"
    }
  ],
  "bytecode": "0x6060604052341561000f57600080fd5b6103868061001e6000396000f300606060405260043610610041576000357c0100000000000000000000000000000000000000000000000000000000900463ffffffff16806334d1460b14610046575b600080fd5b341561005157600080fd5b6100e4600480803590602001908201803590602001908080601f0160208091040260200160405190810160405280939291908181526020018383808284378201915050505050509190803590602001908201803590602001908080601f0160208091040260200160405190810160405280939291908181526020018383808284378201915050505050509190505061015f565b6040518080602001828103825283818151815260200191508051906020019080838360005b83811015610124578082015181840152602081019050610109565b50505050905090810190601f1680156101515780820380516001836020036101000a031916815260200191505b509250505060405180910390f35b610167610332565b61016f610346565b610177610346565b61017f610332565b610187610346565b60008088955087945084518651016040518059106101a25750595b9080825280601f01601f19166020018201604052509350839250600091505b855182101561026e5785828151811015156101d857fe5b9060200101517f010000000000000000000000000000000000000000000000000000000000000090047f010000000000000000000000000000000000000000000000000000000000000002838381518110151561023157fe5b9060200101907effffffffffffffffffffffffffffffffffffffffffffffffffffffffffffff1916908160001a90535081806001019250506101c1565b600090505b845181101561032357848181518110151561028a57fe5b9060200101517f010000000000000000000000000000000000000000000000000000000000000090047f01000000000000000000000000000000000000000000000000000000000000000283828851018151811015156102e657fe5b9060200101907effffffffffffffffffffffffffffffffffffffffffffffffffffffffffffff1916908160001a9053508080600101915050610273565b82965050505050505092915050565b602060405190810160405280600081525090565b6020604051908101604052806000815250905600a165627a7a72305820105477eb69e078c2aab366a30aa8119fc2256cb8994111e68a888a0e2a3cf10d0029",
  "source": "pragma solidity 0.4.19;\n\ncontract Concatenate {\n    \n    function concatWithoutImport(string str1, string str2) public constant returns (string) {\n        bytes memory _str1 = bytes(str1);\n        bytes memory _str2 = bytes(str2);\n        string memory _str = new string(_str1.length + _str2.length);\n        bytes memory result = bytes(_str);\n        for (uint i = 0; i < _str1.length; i++) result[i] = _str1[i];\n        for (uint k = 0; k < _str2.length; k++) result[_str1.length + k] = _str2[k];\n        return string(result);\n    }\n    \n}\n",
  "sourcePath": "/Users/adithyaj/Google Drive/berkeley/babDev/lab2/Intro to Solidity/contracts/concatenate.sol",
  "compiler": {
    "name": "solc",
    "version": "0.4.19+commit.c4cbbb05.Emscripten.clang"
  },
  "schemaVersion": "1.0.1",
  "updatedAt": "2018-02-22T09:55:38.789Z"
}