{
  "contractName": "Fibonacci",
  "abi": [
    {
      "constant": true,
      "inputs": [
        {
          "name": "n",
          "type": "uint256"
        }
      ],
      "name": "fibRecur",
      "outputs": [
        {
          "name": "",
          "type": "uint256"
        }
      ],
      "payable": false,
      "stateMutability": "pure",
      "type": "function"
    },
    {
      "constant": false,
      "inputs": [
        {
          "name": "n",
          "type": "uint256"
        }
      ],
      "name": "fibIter",
      "outputs": [
        {
          "name": "",
          "type": "uint256"
        }
      ],
      "payable": false,
      "stateMutability": "nonpayable",
      "type": "function"
    }
  ],
  "bytecode": "0x6060604052341561000f57600080fd5b61016f8061001e6000396000f30060606040526004361061004c576000357c0100000000000000000000000000000000000000000000000000000000900463ffffffff168063c840476e14610051578063dfe5adc114610088575b600080fd5b341561005c57600080fd5b61007260048080359060200190919050506100bf565b6040518082815260200191505060405180910390f35b341561009357600080fd5b6100a96004808035906020019091905050610105565b6040518082815260200191505060405180910390f35b6000808214156100d25760009050610100565b60018214156100e45760019050610100565b6100f0600283036100bf565b6100fc600184036100bf565b0190505b919050565b600080600080600080935060019250600191505b85821015610137578290508383019250809350600182019150610119565b829450505050509190505600a165627a7a7230582078395219ae3ff2d5d3474483b5fa816908264380cd516799bd62c0050d99c95b0029",
  "source": "pragma solidity 0.4.19;\n\n\ncontract Fibonacci {\n    /* Carry out calculations to find the nth Fibonacci number */\n    function fibRecur(uint n) public pure returns (uint) {\n      if (n == 0)\n        return 0;\n      else if (n == 1)\n        return 1;\n      return fibRecur(n-1) + fibRecur(n-2);\n    }\n\n    /* Carry out calculations to find the nth Fibonacci number */\n    function fibIter(uint n) public returns (uint) {\n      uint prev = 0;\n      uint curr = 1;\n      uint counter = 1;\n      while (counter < n) {\n        uint temp = curr;\n        curr = curr + prev;\n        prev = temp;\n        counter = counter + 1;\n      }\n\n      return curr;\n    }\n}\n",
  "sourcePath": "/Users/hamdi/Documents/Projects/courses/bab-decal/sp18-lab02/Intro to Solidity/contracts/fibonacci.sol",
  "compiler": {
    "name": "solc",
    "version": "0.4.19+commit.c4cbbb05.Emscripten.clang"
  },
  "schemaVersion": "1.0.1",
  "updatedAt": "2018-02-24T01:56:46.015Z"
}