{
  "contractName": "fibonnaci",
  "abi": [
    {
      "inputs": [],
      "payable": false,
      "stateMutability": "nonpayable",
      "type": "constructor"
    },
    {
      "constant": false,
      "inputs": [],
      "name": "fibIter",
      "outputs": [
        {
          "name": "fib",
          "type": "uint256"
        }
      ],
      "payable": false,
      "stateMutability": "nonpayable",
      "type": "function"
    }
  ],
  "bytecode": "0x60606040526000805560018055341561001757600080fd5b600080819055506001808190555060b9806100336000396000f300606060405260043610603f576000357c0100000000000000000000000000000000000000000000000000000000900463ffffffff16806371a5dc02146044575b600080fd5b3415604e57600080fd5b6054606a565b6040518082815260200191505060405180910390f35b6000806000549050600154600081905550600154810160018190555080915050905600a165627a7a723058206d48ab981b4b3ff77736d22db61779fcd0e4d763ae3b4f6a52e6f5f83bc764760029",
  "source": "pragma solidity 0.4.19;\n\ncontract fibonnaci {\n    uint _curr = 0;\n    uint _next = 1;\n\n    function fibonnaci() public {\n        _curr = 0;\n        _next = 1;\n    }\n\n\n    function fibIter() public returns (uint fib) {\n        uint stor = _curr;\n        _curr = _next;\n        _next = stor + _next;\n        return stor;\n    }\n    \n    \n    \n}\n",
  "sourcePath": "/Users/adithyaj/Google Drive/berkeley/babDev/lab2/Intro to Solidity/contracts/fibonacci.sol",
  "compiler": {
    "name": "solc",
    "version": "0.4.19+commit.c4cbbb05.Emscripten.clang"
  },
  "schemaVersion": "1.0.1",
  "updatedAt": "2018-02-22T09:53:49.602Z"
}