{
  "contractName": "fibonacci",
  "abi": [
    {
      "constant": false,
      "inputs": [],
      "name": "fibonnaci",
      "outputs": [],
      "payable": false,
      "stateMutability": "nonpayable",
      "type": "function"
    },
    {
      "constant": false,
      "inputs": [],
      "name": "fibIter",
      "outputs": [
        {
          "name": "fib",
          "type": "uint256"
        }
      ],
      "payable": false,
      "stateMutability": "nonpayable",
      "type": "function"
    }
  ],
  "bytecode": "0x60606040526000805560018055341561001757600080fd5b60e5806100256000396000f3006060604052600436106049576000357c0100000000000000000000000000000000000000000000000000000000900463ffffffff16806371a5dc0214604e578063fdd1d35a146074575b600080fd5b3415605857600080fd5b605e6086565b6040518082815260200191505060405180910390f35b3415607e57600080fd5b608460a9565b005b600080600054905060015460008190555060015481016001819055508091505090565b60008081905550600180819055505600a165627a7a723058206ed8ca6d84ab18a3bdc9ac7a37c23852730e2c82f7177100713c1133c2b02cbc0029",
  "source": "pragma solidity 0.4.19;\n\ncontract fibonacci {\n    uint _curr = 0;\n    uint _next = 1;\n\n    function fibonnaci() public {\n        _curr = 0;\n        _next = 1;\n    }\n\n\n    function fibIter() public returns (uint fib) {\n        uint stor = _curr;\n        _curr = _next;\n        _next = stor + _next;\n        return stor;\n    }\n    \n    \n    \n}\n",
  "sourcePath": "/Users/adithyaj/Google Drive/berkeley/babDev/lab2/Intro to Solidity/contracts/fibonacci.sol",
  "compiler": {
    "name": "solc",
    "version": "0.4.19+commit.c4cbbb05.Emscripten.clang"
  },
  "schemaVersion": "1.0.1",
  "updatedAt": "2018-02-22T09:55:38.788Z"
}