{
  "contractName": "XOR",
  "abi": [
    {
      "constant": true,
      "inputs": [
        {
          "name": "a",
          "type": "uint256"
        },
        {
          "name": "b",
          "type": "uint256"
        }
      ],
      "name": "xor",
      "outputs": [
        {
          "name": "",
          "type": "uint256"
        }
      ],
      "payable": false,
      "stateMutability": "pure",
      "type": "function"
    }
  ],
  "bytecode": "0x6060604052341561000f57600080fd5b60ca8061001d6000396000f300606060405260043610603f576000357c0100000000000000000000000000000000000000000000000000000000900463ffffffff1680639ed41ba1146044575b600080fd5b3415604e57600080fd5b606b60048080359060200190919080359060200190919050506081565b6040518082815260200191505060405180910390f35b600081831415609257600090506098565b81831890505b929150505600a165627a7a7230582097c3c5602d1aefa9e2595de8e5525064f4b19739edeb38fbc84684adb14175ed0029",
  "source": "pragma solidity 0.4.19;\n\n\ncontract XOR {\n    function xor(uint a, uint b) public pure returns (uint) {\n      if (a == b)\n        return 0;\n      return a ^ b;\n    }\n}\n",
  "sourcePath": "/Users/hamdi/Documents/Projects/courses/bab-decal/sp18-lab02/Intro to Solidity/contracts/xor.sol",
  "compiler": {
    "name": "solc",
    "version": "0.4.19+commit.c4cbbb05.Emscripten.clang"
  },
  "schemaVersion": "1.0.1",
  "updatedAt": "2018-02-24T01:56:46.015Z"
}