{
  "contractName": "XOR",
  "abi": [
    {
      "constant": true,
      "inputs": [
        {
          "name": "num1",
          "type": "uint256"
        },
        {
          "name": "num2",
          "type": "uint256"
        }
      ],
      "name": "xor",
      "outputs": [
        {
          "name": "",
          "type": "uint256"
        }
      ],
      "payable": false,
      "stateMutability": "pure",
      "type": "function"
    }
  ],
  "bytecode": "0x6060604052341561000f57600080fd5b60c98061001d6000396000f300606060405260043610603f576000357c0100000000000000000000000000000000000000000000000000000000900463ffffffff1680639ed41ba1146044575b600080fd5b3415604e57600080fd5b606b60048080359060200190919080359060200190919050506081565b6040518082815260200191505060405180910390f35b600081831415609257600090506097565b600190505b929150505600a165627a7a7230582085e7c634aea5946f99911041ef7ee53a1e6e695ed18cf793f8c206a268dc1af20029",
  "source": "pragma solidity 0.4.19;\n\ncontract XOR {\n    \n    function xor(uint num1, uint num2) public pure returns (uint) {\n        if (num1 == num2) {\n            return 0;\n        } else {\n            return 1;\n        }\n    }\n    \n}\n",
  "sourcePath": "/Users/adithyaj/Google Drive/berkeley/babDev/lab2/Intro to Solidity/contracts/xor.sol",
  "compiler": {
    "name": "solc",
    "version": "0.4.19+commit.c4cbbb05.Emscripten.clang"
  },
  "schemaVersion": "1.0.1",
  "updatedAt": "2018-02-22T09:55:38.788Z"
}